:02000000AB282B
:10000600710DF80DF90D7408F8027508031C750FCB
:10001600F902F00DF10D0F30FC00710DF80DF90D20
:100026007408701C1C28F8027508031C750FF90269
:100036002128F80775080318750FF907F00DF10D5B
:10004600FC0B102870182D287408F807750803187B
:08005600750FF9070000080016
:0E005E008312031325088A002408820008007C
:10006C002F208A110A128000840AA40A0319A50AF7
:08007C00F003031D3628080003
:10008400831203137408003A031D51287508003ABB
:10009400031D5128FF30F0007F30F100AA2883129D
:1000A4000313FD01F901F801710870040319003408
:1000B40071087506FA00FA1BFD09FB01F51F672894
:1000C400F409F509F40A0319F50AF11F6E28F00979
:1000D400F109F00A0319F10A71087504FA00FA1B10
:1000E400832803207B189628FD1F0034F009F109AA
:1000F400F00A0319F10AF809F909F80A0319F90AC7
:100104000034F51F9228F11B8E287108F90070083D
:10011400F800F101F0017628F101F001F00A003451
:10012400F109F009FB0A7328F80A0319F90A74089B
:100134007802031D762875087902031D7628F901D3
:10014400F801F00A0319F10AF11F76280000FF34C0
:020154000800A1
:1001560083120313A001A101A201A3010730831694
:100166009F00860187018801FF3085008312880180
:1001760008088600060887000816051AC328C62838
:10018600051EC62881291730A0000030A100803046
:100196002106F00080307002031DD32801302002B2
:1001A600031C20290A30F4000030F5002008F00076
:1001B6002108F10042207808F0007908F100700863
:1001C60087000A30F4000030F5002008F00021080E
:1001D600F1004220700886000814881708130030C2
:1001E6002106031DF8280330200603190B290030C9
:1001F6002106031D00290230200603190B290030B1
:100206002106031D08290130200603190B290D2993
:10021600881308170630FB001330FC00AD30FD00D4
:10022600FD0B1329FC0B1329FB0B132900000000FF
:100236000130A002031CA103CA2808108813081362
:100246000F30A2000030A30080302306F00080307B
:100256007002031D302901302202031C7D290A3059
:10026600F4000030F5002208F0002308F1004220D7
:100276007808F0007908F100700887000A30F40069
:100286000030F5002208F0002308F1004220700833
:10029600860008158816881000302306031D552988
:1002A600033022060319682900302306031D5D2941
:1002B600023022060319682900302306031D65292A
:1002C60001302206031968296A29881408110630A4
:1002D600FB001330FC00AD30FD00FD0B7029FC0B5C
:1002E6007029FB0B7029000000000130A202031CDC
:1002F600A3032729881008118812C628851CE72918
:10030600081588161530FB004B30FC00BE30FD008A
:10031600FD0B8B29FC0B8B29FB0B8B29000087011E
:100326000330A0000030A10080302106F0008030AC
:100336007002031DA02901302002031CB9292008E0
:100346008700881408110630FB001330FC00AD301E
:10035600FD00FD0BAC29FC0BAC29FB0BAC29000006
:1003660000000130A002031CA10397290230FB0004
:100376000430FC00BA30FD00FD0BBF29FC0BBF2981
:10038600FB0BBF2900008701881008140530FB000D
:100396000F30FC00F130FD00FD0BCF29FC0BCF29FF
:1003A600FB0BCF29881288171530FB004B30FC0059
:1003B600BE30FD00FD0BDD29FC0BDD29FB0BDD2925
:1003C600000008108813832985184C2A08148817FA
:1003D6001530FB004B30FC00BE30FD00FD0BF12953
:1003E600FC0BF129FB0BF12900000330A0000030C3
:1003F600A10080302106F00080307002031D052A1E
:1004060001302002031C1E2A2008870008178813C3
:100416000630FB001330FC00AD30FD00FD0B112A49
:10042600FC0B112AFB0B112A000000000130A00270
:10043600031CA103FC290230FB000430FC00BA3087
:10044600FD00FD0B242AFC0B242AFB0B242A0000AA
:100456008701081388160530FB000F30FC00F130C9
:10046600FD00FD0B342AFC0B342AFB0B342A081042
:1004760008151530FB004B30FC00BE30FD00FD0BAF
:10048600422AFC0B422AFB0B422A00008812081162
:04049600E9294C2ADA
:02400E004A2F37
:00000001FF
